:100000000C942A000C9434000C9434000C943400AA
:100010000C9434000C9434000C9434000C94340090
:100020000C9434000C9434000C9434000C94340080
:100030000C9434000C9434000C9434000C94340070
:100040000C9434000C9434000C9434000C94340060
:100050000C94340011241FBECFE5D8E0DEBFCDBF25
:100060000E9436000C944B000C940000DF93CF9359
:10007000CDB7DEB7E1E3F0E08FEF8083EAE3F0E0B5
:100080008FEF8083E2E3F0E08FE68083EBE3F0E044
:0A0090008FE48083F7CFF894FFCFD0
:00000001FF
