:100000000C942A000C943F000C943F000C943F0089
:100010000C943F000C943F000C943F000C943F0064
:100020000C943F000C943F000C943F000C943F0054
:100030000C943F000C943F000C943F000C943F0044
:100040000C943F000C943F000C943F000C943F0034
:100050000C943F0011241FBECFE5D8E0DEBFCDBF1A
:1000600011E0A0E6B0E0E4ECFBE102C005900D92E7
:10007000A832B107D9F70E94420A0C94E00D0C9403
:100080000000EF92FF920F931F937B018C0120E001
:1000900030E040E05FE40E94410388238CF0C80117
:1000A000B70120E030E040E05FE40E94B9010E9427
:1000B000A1039B01AC01205030404040504806C095
:1000C000C801B7010E94A1039B01AC01B901CA019B
:1000D0001F910F91FF90EF900895A0E0B0E0E3E74B
:1000E000F0E00C94A90DDC012B01FA019C919230F7
:1000F00008F439C1EB018881823008F433C19430AF
:1001000069F4843009F02FC111969C91119789816F
:10011000981709F428C1A0E6B0E025C1843009F49D
:1001200021C18230A9F4923009F01DC19A01AD01BC
:1001300088E0EA010990AE01E90109929E0181502F
:10014000C1F7E201898111969C918923818308C1BD
:10015000923009F407C112962D903C901397EB0151
:100160008A819B811496AD90BD90CD90DC901797BD
:10017000EC80FD800E811F819101281B390BB90194
:1001800037FF04C066277727621B730B6032710547
:100190000CF061C0121613066CF537014801062EEB
:1001A00004C096948794779467940A94D2F721E0D8
:1001B00030E040E050E004C0220F331F441F551FC1
:1001C0006A95D2F721503040404050402E213F21C7
:1001D00040235123211531054105510521F021E02E
:1001E00030E040E050E079018A01E628F72808294C
:1001F00019293CC0232BD1F1260E371E35014601AB
:10020000062E04C096948794779467940A94D2F744
:1002100021E030E040E050E004C0220F331F441FD3
:10022000551F6A95D2F721503040404050402A2156
:100230003B214C215D21211531054105510521F05E
:1002400021E030E040E050E059016A01A628B728DB
:10025000C828D9280BC0821593052CF01C01AA24AC
:10026000BB24650103C0EE24FF24870111969C91F5
:10027000D20111968C91981709F445C0992339F051
:10028000A80197012A193B094C095D0906C0A6017E
:1002900095012E193F09400B510B57FD08C01182E3
:1002A0003382228224833583468357831DC081E0B5
:1002B00081833382228288279927DC01821B930B5A
:1002C000A40BB50B84839583A683B7830DC0220F3F
:1002D000331F441F551F24833583468357838281F0
:1002E000938101979383828324813581468157814D
:1002F000DA01C9010197A109B1098F5F9F4FAF4F83
:10030000BF4328F30BC0918333822282EA0CFB1C8B
:100310000C1D1D1DE482F5820683178383E0808314
:10032000248135814681578157FF1AC0C901AA2708
:1003300097FDA095BA2F81709070A070B0705695FF
:10034000479537952795822B932BA42BB52B848328
:100350009583A683B7838281938101969383828359
:10036000DF0101C0D201CD01CDB7DEB7E2E10C94CF
:10037000C50DA0E2B0E0EFEBF1E00C94B50D6983A0
:100380007A838B839C832D833E834F835887E9E058
:10039000EE2EF12CEC0EFD1ECE010196B7010E944F
:1003A000CA048E010F5E1F4FCE010596B8010E9450
:1003B000CA048A8991E089278A8BC701B801AE01F6
:1003C000475E5F4F0E946D000E94F503A096E6E035
:1003D0000C94D10DA0E2B0E0E0EFF1E00C94B50D8B
:1003E00069837A838B839C832D833E834F835887D5
:1003F000F9E0EF2EF12CEC0EFD1ECE010196B701B7
:100400000E94CA048E010F5E1F4FCE010596B801EF
:100410000E94CA04C701B801AE01475E5F4F0E9447
:100420006D000E94F503A096E6E00C94D10DA0E2C9
:10043000B0E0EDE1F2E00C94A90D69837A838B833F
:100440009C832D833E834F835887CE010196BE0146
:10045000675F7F4F0E94CA04CE010596BE016F5EA2
:100460007F4F0E94CA049985923088F08989823032
:10047000C8F0943019F4823051F404C0843029F467
:10048000923081F480E690E0C6C0923049F420E0DA
:100490009A858A89981321E02A87CE010996BBC0E4
:1004A000823049F420E09A858A89981321E02A8BCA
:1004B000CE014196B0C02D843E844F8458886D880B
:1004C0007E888F88988CEE24FF248701AA24BB2481
:1004D000650140E050E060E070E0E0E0F0E0C10184
:1004E00081709070892BE9F0E60CF71C081D191D2E
:1004F0009A01AB012A0D3B1D4C1D5D1D80E090E073
:10050000A0E0B0E0E614F7040805190520F481E046
:1005100090E0A0E0B0E0BA01A901480F591F6A1F9E
:100520007B1FAA0CBB1CCC1CDD1C97FE08C081E005
:1005300090E0A0E0B0E0A82AB92ACA2ADB2A3196C6
:10054000E032F10549F0660C771C881C991C569422
:10055000479437942794C3CFFA85EA892B893C893D
:100560008B859C85280F391F2E5F3F4F17C0CA010E
:1005700081709070892B61F016950795F794E79438
:1005800080E090E0A0E0B0E8E82AF92A0A2B1B2BD3
:1005900076956795579547952F5F3F4F77FDE7CF46
:1005A0000CC0440F551F661F771F17FD4160EE0CEE
:1005B000FF1C001F111F21503040403090E05907B0
:1005C00090E0690790E4790760F32B8F3C8FDB01A3
:1005D000CA018F779070A070B07080349105A1052A
:1005E000B10561F447FD0AC0E114F10401051105EC
:1005F00029F0405C5F4F6F4F7F4F40781A8EFE1797
:1006000011F081E08A8F4D8F5E8F6F8F78A383E02A
:10061000898FCE0149960E94F503A096E2E10C94E1
:10062000C50DA8E1B0E0E7E1F3E00C94B50D6983F6
:100630007A838B839C832D833E834F83588789E005
:10064000E82EF12CEC0EFD1ECE010196B7010E94A2
:10065000CA048E010F5E1F4FCE010596B8010E949D
:10066000CA048985823040F08989823028F0C70128
:10067000B8010E94420501C08FEF6896E6E00C9435
:10068000D10DA8E1B0E0E7E4F3E00C94B50D698387
:100690007A838B839C832D833E834F83588789E0A5
:1006A000E82EF12CEC0EFD1ECE010196B7010E9442
:1006B000CA048E010F5E1F4FCE010596B8010E943D
:1006C000CA048985823040F08989823028F0C701C8
:1006D000B8010E94420501C08FEF6896E6E00C94D5
:1006E000D10DA8E1B0E0E7E7F3E00C94B50D698324
:1006F0007A838B839C832D833E834F83588789E045
:10070000E82EF12CEC0EFD1ECE010196B7010E94E1
:10071000CA048E010F5E1F4FCE010596B8010E94DC
:10072000CA048985823040F08989823028F0C70167
:10073000B8010E94420501C081E06896E6E00C9491
:10074000D10DACE0B0E0E7EAF3E00C94B90D6983B9
:100750007A838B839C83CE010196BE016B5F7F4FB2
:100760000E94CA048D81823061F1823050F1843060
:1007700021F48E81882351F12EC02F81388537FDD9
:1007800020C06E812F3131051CF06623F9F023C0A3
:100790008EE190E0821B930B29853A854B855C8521
:1007A00004C056954795379527958A95D2F76623C5
:1007B000B1F050954095309521953F4F4F4F5F4F89
:1007C0000EC020E030E040E050E009C02FEF3FEFE6
:1007D0004FEF5FE704C020E030E040E050E8B901AF
:1007E000CA012C96E2E00C94D50DDF92EF92FF92B5
:1007F0000F931F93FC01E480F58006811781D1805F
:100800008081823048F480E090E0A0E1B0E0E82A06
:10081000F92A0A2B1B2BA5C0843009F49FC0823013
:1008200021F4EE24FF24870105C0E114F104010541
:10083000110519F4E0E0F0E096C0628173819FEF4A
:10084000623879070CF05BC022E83FEF261B370BBC
:100850002A3131052CF020E030E040E050E02AC0A1
:10086000B801A701022E04C0769567955795479564
:100870000A94D2F781E090E0A0E0B0E004C0880FD5
:10088000991FAA1FBB1F2A95D2F70197A109B10989
:100890008E219F21A023B1230097A105B10521F04E
:1008A00081E090E0A0E0B0E09A01AB01282B392B69
:1008B0004A2B5B2BDA01C9018F779070A070B07062
:1008C00080349105A105B10539F427FF09C0205CEA
:1008D0003F4F4F4F5F4F04C0215C3F4F4F4F5F4F23
:1008E000E0E0F0E02030A0E03A07A0E04A07A0E412
:1008F0005A0710F0E1E0F0E079018A0127C0603882
:10090000710564F5FB01E158FF4FD801C7018F77EE
:100910009070A070B07080349105A105B10539F4D4
:10092000E7FE0DC080E490E0A0E0B0E004C08FE3FB
:1009300090E0A0E0B0E0E80EF91E0A1F1B1F17FFB1
:1009400005C016950795F794E794319687E01695BC
:100950000795F794E7948A95D1F705C0EE24FF2414
:100960008701EFEFF0E06E2F679566276795902F70
:100970009F77D794DD24D7948E2F8695492F462BC9
:10098000582F5D29B701CA011F910F91FF90EF9079
:10099000DF900895FC01DB01408151812281622FAB
:1009A0006F7770E0221F2227221F9381892F880FE3
:1009B000822B282F30E0991F9927991F11969C931D
:1009C000119721153105A9F54115510561057105ED
:1009D00011F482E037C082E89FEF13969C938E93C8
:1009E00012979A01AB0167E0220F331F441F551F76
:1009F0006A95D1F783E08C930DC0220F331F441FFB
:100A0000551F12968D919C911397019713969C9365
:100A10008E931297203080E0380780E0480780E40A
:100A2000580758F314962D933D934D935C93179765
:100A300008952F3F310579F4411551056105710580
:100A400019F484E08C93089564FF03C081E08C93D3
:100A500012C01C9210C02F57304013963C932E9317
:100A6000129783E08C9387E0440F551F661F771F12
:100A70008A95D1F7706414964D935D936D937C9332
:100A8000179708951F93DC01FB019C91923008F4A5
:100A900047C08081823008F443C0943051F41196ED
:100AA0001C91843099F58181682F70E0611B710978
:100AB0003FC0843021F0923031F48230B9F181812D
:100AC000882389F12DC011961C9111978230F1F085
:100AD00081811817D9F412962D913C911397828138
:100AE00093818217930794F028173907BCF0149666
:100AF0008D919D910D90BC91A02D248135814681D1
:100B00005781281739074A075B0718F4112341F06A
:100B10000AC082179307A407B50740F4112319F000
:100B200061E070E005C06FEF7FEF02C060E070E051
:100B3000CB011F910895DF93CF93CDB7DEB7EAE3E2
:100B4000F0E08FEF8083E7E3F0E08FEF8083E4E372
:100B5000F0E08FEF8083E1E3F0E08FEF8083EBE361
:100B6000F0E01082E8E3F0E01082E5E3F0E01082CC
:100B7000E2E3F0E01082CF91DF910895DF93CF930D
:100B8000CDB7DEB727970FB6F894DEBF0FBECDBF47
:100B90008C836D831B828C81803230F48D81813017
:100BA00031F08D81882319F081E08B83CEC08C8158
:100BB00087708A838C8186958695869589838981BD
:100BC000282F30E03F832E836E817F816130710555
:100BD00009F441C08E819F818230910534F42E81C9
:100BE0003F812115310571F0B0C06E817F81623087
:100BF000710509F459C08E819F818330910509F4F4
:100C00007CC0A3C08D81882321F08D81813009F0C3
:100C10001D82AAE3B0E0EAE3F0E08081482F8A81F8
:100C2000282F30E081E090E002C0880F991F2A95BC
:100C3000E2F7809548238D81282F30E08A81882F24
:100C400090E0B90102C0660F771F8A95E2F7CB01E9
:100C5000842B8C937AC08D81882321F08D81813003
:100C600009F01D82A7E3B0E0E7E3F0E08081482FC0
:100C70008A81282F30E081E090E002C0880F991F20
:100C80002A95E2F7809548238D81282F30E08A81CC
:100C9000882F90E0B90102C0660F771F8A95E2F7AE
:100CA000CB01842B8C9351C08D81882321F08D81C1
:100CB000813009F01D82A4E3B0E0E4E3F0E080813C
:100CC000482F8A81282F30E081E090E002C0880F11
:100CD000991F2A95E2F7809548238D81282F30E0CF
:100CE0008A81882F90E0B90102C0660F771F8A952C
:100CF000E2F7CB01842B8C9328C08D81882321F0CF
:100D00008D81813009F01D82A1E3B0E0E1E3F0E0E4
:100D10008081482F8A81282F30E081E090E002C056
:100D2000880F991F2A95E2F7809548238D81282FF7
:100D300030E08A81882F90E0B90102C0660F771FEA
:100D40008A95E2F7CB01842B8C938B8127960FB683
:100D5000F894DEBF0FBECDBFCF91DF910895DF9332
:100D6000CF93CDB7DEB727970FB6F894DEBF0FBE8F
:100D7000CDBF8C836D831B828C81803230F48D815A
:100D8000813031F08D81882319F081E08B83CEC0D2
:100D90008C8187708A838C818695869586958983D8
:100DA0008981282F30E03F832E836E817F816130DF
:100DB000710509F441C08E819F818230910534F420
:100DC0002E813F812115310571F0B0C06E817F8188
:100DD0006230710509F459C08E819F81833091057D
:100DE00009F47CC0A3C08D81882321F08D818130DE
:100DF00009F01D82ABE3B0E0EBE3F0E08081482F27
:100E00008A81282F30E081E090E002C0880F991F8E
:100E10002A95E2F7809548238D81282F30E08A813A
:100E2000882F90E0B90102C0660F771F8A95E2F71C
:100E3000CB01842B8C937AC08D81882321F08D8106
:100E4000813009F01D82A8E3B0E0E8E3F0E08081A2
:100E5000482F8A81282F30E081E090E002C0880F7F
:100E6000991F2A95E2F7809548238D81282F30E03D
:100E70008A81882F90E0B90102C0660F771F8A959A
:100E8000E2F7CB01842B8C9351C08D81882321F014
:100E90008D81813009F01D82A5E3B0E0E5E3F0E04B
:100EA0008081482F8A81282F30E081E090E002C0C5
:100EB000880F991F2A95E2F7809548238D81282F66
:100EC00030E08A81882F90E0B90102C0660F771F59
:100ED0008A95E2F7CB01842B8C9328C08D818823DF
:100EE00021F08D81813009F01D82A2E3B0E0E2E3C0
:100EF000F0E08081482F8A81282F30E081E090E067
:100F000002C0880F991F2A95E2F7809548238D81AA
:100F1000282F30E08A81882F90E0B90102C0660F47
:100F2000771F8A95E2F7CB01842B8C938B812796D0
:100F30000FB6F894DEBF0FBECDBFCF91DF910895FD
:100F4000DF93CF93CDB7DEB728970FB6F894DEBF07
:100F50000FBECDBF8C837E836D831B828C818032DC
:100F600020F48D819E81009719F481E08B8378C0F5
:100F70008C8187708A838C818695869586958983F6
:100F80008981282F30E038872F834F815885413061
:100F9000510559F18F8198858230910534F42F8164
:100FA00038852115310569F05BC04F815885423085
:100FB000510579F18F8198858330910509F43DC001
:100FC0004FC0E9E3F0E08081282F30E08A81882F4C
:100FD00090E0A90102C0559547958A95E2F7CA01AC
:100FE0008170ED81FE8180833BC0E6E3F0E080818B
:100FF000282F30E08A81882F90E0A90102C0559502
:1010000047958A95E2F7CA018170ED81FE81808360
:1010100027C0E3E3F0E08081282F30E08A81882F29
:1010200090E0A90102C0559547958A95E2F7CA015B
:101030008170ED81FE81808313C0E0E3F0E0808168
:10104000282F30E08A81882F90E0A90102C05595B1
:1010500047958A95E2F7CA018170ED81FE81808310
:101060008B8128960FB6F894DEBF0FBECDBFCF910F
:10107000DF910895DF93CF9300D00F92CDB7DEB705
:101080008A836B83198281E0898389810F900F9015
:101090000F90CF91DF910895DF93CF9300D000D0D0
:1010A0000F92CDB7DEB78A836B8319828A81843031
:1010B00018F081E0898332C08A81282F30E03D8397
:1010C0002C838C819D8181309105D1F02C813D81D3
:1010D000223031052CF48C819D81009761F01EC077
:1010E0002C813D812230310581F08C819D818330BE
:1010F000910581F013C0EBE3F0E08B8180830EC09B
:10110000E8E3F0E08B81808309C0E5E3F0E08B81C8
:10111000808304C0E2E3F0E08B81808389810F90BB
:101120000F900F900F900F90CF91DF910895DF9364
:10113000CF9300D000D000D0CDB7DEB78A837C83B8
:101140006B8319828A81843018F081E089833AC0E8
:101150008A81282F30E03E832D838D819E818130CE
:101160009105E1F02D813E81223031052CF48D81F5
:101170009E81009761F026C02D813E81223031058D
:10118000A1F08D819E8183309105B1F01BC0E9E310
:10119000F0E08081EB81FC81808314C0E6E3F0E025
:1011A0008081EB81FC8180830DC0E3E3F0E08081EE
:1011B000EB81FC81808306C0E0E3F0E08081EB817D
:1011C000FC818083898126960FB6F894DEBF0FBE1E
:1011D000CDBFCF91DF910895DF93CF93CDB7DEB729
:1011E000A3970FB6F894DEBF0FBECDBF9F8F8E8F33
:1011F00068A31D8E88A1282F30E03AA329A389A1D6
:101200009AA1009739F029A13AA12130310509F4BA
:1012100099C02FC181E060E00E944C081D8E8DC0F6
:101220008D8D882F90E0FC01E859FF4F908183E07D
:10123000692F0E944C088D8D282F30E08E8D9F8D58
:10124000FC01E20FF31F908180E0692F0E944C089F
:1012500080E090E0A0E0B0E4898F9A8FAB8FBC8FE4
:10126000698D7A8D8B8D9C8D20E030E04AEF54E4BF
:101270000E941702DC01CB018D8B9E8BAF8BB88F48
:101280006D897E898F89988D20E030E040E85FE3AA
:101290000E94710388232CF481E090E09C8B8B8B5F
:1012A0003FC06D897E898F89988D20E03FEF4FE7A1
:1012B00057E40E94110318164CF5698D7A8D8B8DB9
:1012C0009C8D20E030E040E251E40E941702DC01F6
:1012D000CB01BC01CD010E944100DC01CB019C8B04
:1012E0008B8B0FC088EC90E09A8B898B89899A89C7
:1012F0000197F1F79A8B898B8B899C8901979C8B3D
:101300008B8B8B899C89009769F714C06D897E89C6
:101310008F89988D0E944100DC01CB019C8B8B8BC7
:101320008B899C89988B8F878F8598890197F1F796
:10133000988B8F878D8D8F5F8D8F8D8D883008F482
:101340006FCF97C080E060E00E944C081D8E8DC07A
:101350008D8D882F90E0FC01E859FF4F908183E04C
:10136000692F0E944C088D8D282F30E08E8D9F8D27
:10137000FC01E20FF31F908181E0692F0E944C086D
:1013800080E090E0A0E0B0E48B879C87AD87BE87CB
:101390006B857C858D859E8520E030E04AEF54E4A6
:1013A0000E941702DC01CB018F839887A987BA8737
:1013B0006F81788589859A8520E030E040E85FE399
:1013C0000E94710388232CF481E090E09E838D833A
:1013D0003FC06F81788589859A8520E03FEF4FE790
:1013E00057E40E94110318164CF56B857C858D859A
:1013F0009E8520E030E040E251E40E941702DC01CB
:10140000CB01BC01CD010E944100DC01CB019E83D8
:101410008D830FC088EC90E09C838B838B819C81B3
:101420000197F1F79C838B838D819E8101979E8329
:101430008D838D819E81009769F714C06F817885B7
:1014400089859A850E944100DC01CB019E838D83B2
:101450008D819E819A83898389819A810197F1F791
:101460009A8389838D8D8F5F8D8F8D8D883008F461
:101470006FCFA3960FB6F894DEBF0FBECDBFCF914E
:10148000DF910895DF93CF93CDB7DEB7CE55D1402E
:101490000FB6F894DEBF0FBECDBF0E949B05CE01F4
:1014A0000396C55BDE4F99838883CB54D140A0E27D
:1014B000B1E0C35BDE4FB983A883CD54D140B8E01F
:1014C000C15BDE4FB883CF54D140C35BDE4FE881B0
:1014D000F981CD54D1400080C35BDE4F8881998172
:1014E000CD54D1400196C35BDE4F99838883CD54A0
:1014F000D140C55BDE4FA881B981CB54D1400C925D
:10150000C55BDE4FE881F981CB54D1403196C55B94
:10151000DE4FF983E883CB54D140C15BDE4FF881C5
:10152000CF54D140F150C15BDE4FF883CF54D1404E
:10153000C15BDE4F8881CF54D140882331F6DE0174
:101540001B96C05BDE4FB983A883C055D140E8E04D
:10155000F1E0CE5ADE4FF983E883C255D140F8E17D
:10156000CC5ADE4FF883C455D140CE5ADE4FA88105
:10157000B981C255D1400C90CE5ADE4FE881F98135
:10158000C255D1403196CE5ADE4FF983E883C25519
:10159000D140C05BDE4FA881B981C055D1400C92CB
:1015A000C05BDE4FE881F981C055D1403196C05B08
:1015B000DE4FF983E883C055D140CC5ADE4FF88125
:1015C000C455D140F150CC5ADE4FF883C455D140B8
:1015D000CC5ADE4F8881C455D140882331F680E94A
:1015E000FE01B396DF01982F1D929A95E9F781E0ED
:1015F0008DA382E08DA781E08EA781E089AB81E099
:101600008BAB82E08CAB82E08DAB81E08EAB81E076
:101610008FAB83E088AF85E089AF81E08AAF83E05C
:101620008BAF84E08CAF84E08DAF83E08EAF83E03E
:101630008FAF87E0FE01E05CFF4F8083FE01EF5B30
:10164000FF4F8BE08083FE01EE5BFF4F83E08083E2
:10165000FE01ED5BFF4F86E08083FE01EC5BFF4FF8
:1016600089E08083FE01EB5BFF4F89E08083FE0110
:10167000EA5BFF4F86E08083FE01E95BFF4F86E077
:101680008083FE01E85BFF4F8FE08083FE01E75B14
:10169000FF4F86E18083FE01E65BFF4F86E080839B
:1016A000FE01E55BFF4F8CE08083FE01E45BFF4FB2
:1016B00082E18083FE01E35BFF4F82E18083FE01D4
:1016C000E25BFF4F8CE08083FE01E15BFF4F8CE02B
:1016D0008083FE01E05BFF4F8EE18083FE01EF5AC5
:1016E000FF4F8DE28083FE01EE5AFF4F8CE0808336
:1016F000FE01ED5AFF4F88E18083FE01EC5AFF4F57
:1017000084E28083FE01EB5AFF4F84E28083FE0176
:10171000EA5AFF4F88E18083FE01E95AFF4F8CE3CC
:101720008083FE01E85AFF4F8AE58083FE01E75A75
:10173000FF4F89E98083FE01E65AFF4F88E18083ED
:10174000FE01E55AFF4F88E18083FE01E45AFF4F16
:1017500084E28083FE01E35AFF4F84E28083FE012E
:10176000E25AFF4F88E18083FE01E15AFF4F8FEF7D
:101770008083FE01E05AFF4F88E18083FE01EF592C
:10178000FF4F88E18083FE01EE59FF4F84E28083A2
:10179000FE01ED59FF4F88E18083FE01EC59FF4FB8
:1017A00084E28083FE01EB59FF4F85EA8083FE01CE
:1017B000EA59FF4F8AE58083FE01E959FF4F8CE328
:1017C0008083FE01E859FF4F88E18083FE01E759DD
:1017D000FF4F8EE78083FE01E559FF4F88E180834C
:1017E000FE01E459FF4F84E28083FE01E359FF4F7D
:1017F00084E28083FE01E259FF4F88E18083FE018D
:10180000E159FF4F8FEF8083FE01E059FF4F88E1E0
:101810008083FE01EF58FF4F88E18083FE01EE5880
:10182000FF4F84E28083FE01ED58FF4F88E1808303
:10183000FE01EC58FF4F84E28083FE01EB58FF4F1E
:1018400084E28083FE01EA58FF4F88E18083FE0135
:10185000E958FF4F8CE38083FE01E858FF4F8AE58B
:101860008083FE01E758FF4F89E98083FE01E65837
:10187000FF4F88E18083FE01E558FF4F80E38083BE
:10188000FE01E458FF4F88E48083FE01E358FF4FD8
:1018900088E48083FE01E258FF4F80E38083FE01ED
:1018A000E158FF4F80E38083FE01E058FF4F88E757
:1018B0008083FE01EF57FF4F84EB8083FE01EE57DC
:1018C000FF4F80E38083FE01ED57FF4F80E680836A
:1018D000FE01EC57FF4F80E98083FE01EB57FF4F7D
:1018E00080E98083FE01EA57FF4F80E68083FE0196
:1018F000E957FF4F80E68083FE01E857FF4F80EFF6
:101900008083FE01E757FF4F88E68083FE01E6579C
:10191000FF4F80E68083FE01E557FF4F80EC808318
:10192000FE01E457FF4F80E28083FE01E357FF4F43
:1019300080E28083FE01E257FF4F80EC8083FE014E
:10194000E157FF4F80EC8083FE01E057FF4F80EEB0
:101950008083FE01EF56FF4F80ED8083FE01EE563F
:10196000FF4F80EC8083FE01ED56FF4F80E88083BF
:10197000FE01EC56FF4F80E48083FE01EB56FF4FE3
:1019800080E48083FE01EA56FF4F80E88083FE01F9
:10199000E956FF4F80E88083FE01E856FF4F80EC58
:1019A0008083FE01E756FF4F80EA8083FE01E65602
:1019B000FF4F80E88083FE01E456FF4F80E880837C
:1019C000FE01E356FF4F80E88083FE01E056FF4FA3
:1019D00080E88083FE01EF55FF4F80E48083FE01A5
:1019E000E755FF4F80E88083CE018D549F4FCB5A3F
:1019F000DE4F99838883C555D140A0EAB0E0C95A2B
:101A0000DE4FB983A883C755D140B8E6C75ADE4F29
:101A1000B883C955D140C95ADE4FE881F981C7550D
:101A2000D1400080C95ADE4F88819981C755D14085
:101A30000196C95ADE4F99838883C755D140CB5A46
:101A4000DE4FA881B981C555D1400C92CB5ADE4FEB
:101A5000E881F981C555D1403196CB5ADE4FF983E3
:101A6000E883C555D140C75ADE4FF881C955D140EA
:101A7000F150C75ADE4FF883C955D140C75ADE4FDF
:101A80008881C955D140882331F6CE01855E9E4FAD
:101A9000C65ADE4F99838883CA55D140A0E7B0E08B
:101AA000C45ADE4FB983A883CC55D140B0E3C25AA3
:101AB000DE4FB883CE55D140C45ADE4FE881F9815C
:101AC000CC55D1400080C45ADE4F88819981CC55D5
:101AD000D1400196C45ADE4F99838883CC55D140BA
:101AE000C65ADE4FA881B981CA55D1400C92C65A58
:101AF000DE4FE881F981CA55D1403196C65ADE4F92
:101B0000F983E883CA55D140C25ADE4FF881CE55D9
:101B1000D140F150C25ADE4FF883CE55D140C25A5F
:101B2000DE4F8881CE55D140882331F61A82198242
:101B30000AC0CE01039660E00E94EC0889819A8178
:101B400001969A83898389819A81843191058CF3E6
:101B5000EDCF2F923F924F925F926F927F928F9232
:101B60009F92AF92BF92CF92DF92EF92FF920F932C
:101B70001F93CF93DF93CDB7DEB7CA1BDB0B0FB636
:101B8000F894DEBF0FBECDBF09942A8839884888F3
:101B90005F846E847D848C849B84AA84B984C88489
:101BA000DF80EE80FD800C811B81AA81B981CE0F80
:101BB000D11D0FB6F894DEBF0FBECDBFED01089565
:041BC000F894FFCFC7
:101BC4000000000000000000FEFDFBF7EFDFBF7F18
:101BD4000E11110E04DFCA110E11110E04DFCA31E9
:101BE4000E11110EC4DF0A310E1111CEC41F0A31B9
:101BF4000E11110EC4DF0A310E11110E04DFCA31A9
:101C04000E11110E040F34360E11110E040F343A56
:101C14000E11110E04CFC40A0E11110E048F840A82
:101C24000E11110E040F040A0E11110E040F0406F6
:101C34000E11110E040F04060E11110E040F0406EA
:101C44000E11110E040F04060E11110E040F0406DA
:101C54000E11110E048F84060E11110E04CFC4064A
:101C64000E11110E040F3436182424183C5A9918F6
:101C740018242418FF1818241824A55A3C187E0088
:081C8400182442427E42424254
:00000001FF
